{
	"data": {
		"bytecode": {
			"linkReferences": {},
			"object": "608060405234801561001057600080fd5b50604051610b2f380380610b2f833981810160405281019061003291906100db565b806000806101000a81548173ffffffffffffffffffffffffffffffffffffffff021916908373ffffffffffffffffffffffffffffffffffffffff16021790555050610108565b600080fd5b600073ffffffffffffffffffffffffffffffffffffffff82169050919050565b60006100a88261007d565b9050919050565b6100b88161009d565b81146100c357600080fd5b50565b6000815190506100d5816100af565b92915050565b6000602082840312156100f1576100f0610078565b5b60006100ff848285016100c6565b91505092915050565b610a18806101176000396000f3fe608060405234801561001057600080fd5b50600436106100415760003560e01c806327c4ea3414610046578063a4aa1e7014610076578063c99d599f14610094575b600080fd5b610060600480360381019061005b9190610299565b6100b2565b60405161006d91906103bd565b60405180910390f35b61007e61015d565b60405161008b919061043e565b60405180910390f35b61009c610181565b6040516100a991906105b4565b60405180910390f35b606033915060008054906101000a900473ffffffffffffffffffffffffffffffffffffffff1673ffffffffffffffffffffffffffffffffffffffff166327c4ea34836040518263ffffffff1660e01b815260040161011091906105e5565b600060405180830381865afa15801561012d573d6000803e3d6000fd5b505050506040513d6000823e3d601f19601f8201168201806040525081019061015691906107c9565b9050919050565b60008054906101000a900473ffffffffffffffffffffffffffffffffffffffff1681565b606060008054906101000a900473ffffffffffffffffffffffffffffffffffffffff1673ffffffffffffffffffffffffffffffffffffffff16635df7626e336040518263ffffffff1660e01b81526004016101dc91906105e5565b600060405180830381865afa1580156101f9573d6000803e3d6000fd5b505050506040513d6000823e3d601f19601f820116820180604052508101906102229190610999565b905090565b6000604051905090565b600080fd5b600080fd5b600073ffffffffffffffffffffffffffffffffffffffff82169050919050565b60006102668261023b565b9050919050565b6102768161025b565b811461028157600080fd5b50565b6000813590506102938161026d565b92915050565b6000602082840312156102af576102ae610231565b5b60006102bd84828501610284565b91505092915050565b600081519050919050565b600082825260208201905092915050565b6000819050602082019050919050565b6000819050919050565b610305816102f2565b82525050565b60408201600082015161032160008501826102fc565b50602082015161033460208501826102fc565b50505050565b6000610346838361030b565b60408301905092915050565b6000602082019050919050565b600061036a826102c6565b61037481856102d1565b935061037f836102e2565b8060005b838110156103b0578151610397888261033a565b97506103a283610352565b925050600181019050610383565b5085935050505092915050565b600060208201905081810360008301526103d7818461035f565b905092915050565b6000819050919050565b60006104046103ff6103fa8461023b565b6103df565b61023b565b9050919050565b6000610416826103e9565b9050919050565b60006104288261040b565b9050919050565b6104388161041d565b82525050565b6000602082019050610453600083018461042f565b92915050565b600081519050919050565b600082825260208201905092915050565b6000819050602082019050919050565b600081519050919050565b600082825260208201905092915050565b60005b838110156104bf5780820151818401526020810190506104a4565b838111156104ce576000848401525b50505050565b6000601f19601f8301169050919050565b60006104f082610485565b6104fa8185610490565b935061050a8185602086016104a1565b610513816104d4565b840191505092915050565b600061052a83836104e5565b905092915050565b6000602082019050919050565b600061054a82610459565b6105548185610464565b93508360208202850161056685610475565b8060005b858110156105a25784840389528151610583858261051e565b945061058e83610532565b925060208a0199505060018101905061056a565b50829750879550505050505092915050565b600060208201905081810360008301526105ce818461053f565b905092915050565b6105df8161025b565b82525050565b60006020820190506105fa60008301846105d6565b92915050565b600080fd5b7f4e487b7100000000000000000000000000000000000000000000000000000000600052604160045260246000fd5b61063d826104d4565b810181811067ffffffffffffffff8211171561065c5761065b610605565b5b80604052505050565b600061066f610227565b905061067b8282610634565b919050565b600067ffffffffffffffff82111561069b5761069a610605565b5b602082029050602081019050919050565b600080fd5b600080fd5b6106bf816102f2565b81146106ca57600080fd5b50565b6000815190506106dc816106b6565b92915050565b6000604082840312156106f8576106f76106b1565b5b6107026040610665565b90506000610712848285016106cd565b6000830152506020610726848285016106cd565b60208301525092915050565b600061074561074084610680565b610665565b90508083825260208201905060408402830185811115610768576107676106ac565b5b835b81811015610791578061077d88826106e2565b84526020840193505060408101905061076a565b5050509392505050565b600082601f8301126107b0576107af610600565b5b81516107c0848260208601610732565b91505092915050565b6000602082840312156107df576107de610231565b5b600082015167ffffffffffffffff8111156107fd576107fc610236565b5b6108098482850161079b565b91505092915050565b600067ffffffffffffffff82111561082d5761082c610605565b5b602082029050602081019050919050565b600080fd5b600067ffffffffffffffff82111561085e5761085d610605565b5b610867826104d4565b9050602081019050919050565b600061088761088284610843565b610665565b9050828152602081018484840111156108a3576108a261083e565b5b6108ae8482856104a1565b509392505050565b600082601f8301126108cb576108ca610600565b5b81516108db848260208601610874565b91505092915050565b60006108f76108f284610812565b610665565b9050808382526020820190506020840283018581111561091a576109196106ac565b5b835b8181101561096157805167ffffffffffffffff81111561093f5761093e610600565b5b80860161094c89826108b6565b8552602085019450505060208101905061091c565b5050509392505050565b600082601f8301126109805761097f610600565b5b81516109908482602086016108e4565b91505092915050565b6000602082840312156109af576109ae610231565b5b600082015167ffffffffffffffff8111156109cd576109cc610236565b5b6109d98482850161096b565b9150509291505056fea26469706673582212201b025daa2ac056408d2399e4504c16374969e41d0d26d4ed8f5d907ccb6da14464736f6c634300080b0033",
			"opcodes": "PUSH1 0x80 PUSH1 0x40 MSTORE CALLVALUE DUP1 ISZERO PUSH2 0x10 JUMPI PUSH1 0x0 DUP1 REVERT JUMPDEST POP PUSH1 0x40 MLOAD PUSH2 0xB2F CODESIZE SUB DUP1 PUSH2 0xB2F DUP4 CODECOPY DUP2 DUP2 ADD PUSH1 0x40 MSTORE DUP2 ADD SWAP1 PUSH2 0x32 SWAP2 SWAP1 PUSH2 0xDB JUMP JUMPDEST DUP1 PUSH1 0x0 DUP1 PUSH2 0x100 EXP DUP2 SLOAD DUP2 PUSH20 0xFFFFFFFFFFFFFFFFFFFFFFFFFFFFFFFFFFFFFFFF MUL NOT AND SWAP1 DUP4 PUSH20 0xFFFFFFFFFFFFFFFFFFFFFFFFFFFFFFFFFFFFFFFF AND MUL OR SWAP1 SSTORE POP POP PUSH2 0x108 JUMP JUMPDEST PUSH1 0x0 DUP1 REVERT JUMPDEST PUSH1 0x0 PUSH20 0xFFFFFFFFFFFFFFFFFFFFFFFFFFFFFFFFFFFFFFFF DUP3 AND SWAP1 POP SWAP2 SWAP1 POP JUMP JUMPDEST PUSH1 0x0 PUSH2 0xA8 DUP3 PUSH2 0x7D JUMP JUMPDEST SWAP1 POP SWAP2 SWAP1 POP JUMP JUMPDEST PUSH2 0xB8 DUP2 PUSH2 0x9D JUMP JUMPDEST DUP2 EQ PUSH2 0xC3 JUMPI PUSH1 0x0 DUP1 REVERT JUMPDEST POP JUMP JUMPDEST PUSH1 0x0 DUP2 MLOAD SWAP1 POP PUSH2 0xD5 DUP2 PUSH2 0xAF JUMP JUMPDEST SWAP3 SWAP2 POP POP JUMP JUMPDEST PUSH1 0x0 PUSH1 0x20 DUP3 DUP5 SUB SLT ISZERO PUSH2 0xF1 JUMPI PUSH2 0xF0 PUSH2 0x78 JUMP JUMPDEST JUMPDEST PUSH1 0x0 PUSH2 0xFF DUP5 DUP3 DUP6 ADD PUSH2 0xC6 JUMP JUMPDEST SWAP2 POP POP SWAP3 SWAP2 POP POP JUMP JUMPDEST PUSH2 0xA18 DUP1 PUSH2 0x117 PUSH1 0x0 CODECOPY PUSH1 0x0 RETURN INVALID PUSH1 0x80 PUSH1 0x40 MSTORE CALLVALUE DUP1 ISZERO PUSH2 0x10 JUMPI PUSH1 0x0 DUP1 REVERT JUMPDEST POP PUSH1 0x4 CALLDATASIZE LT PUSH2 0x41 JUMPI PUSH1 0x0 CALLDATALOAD PUSH1 0xE0 SHR DUP1 PUSH4 0x27C4EA34 EQ PUSH2 0x46 JUMPI DUP1 PUSH4 0xA4AA1E70 EQ PUSH2 0x76 JUMPI DUP1 PUSH4 0xC99D599F EQ PUSH2 0x94 JUMPI JUMPDEST PUSH1 0x0 DUP1 REVERT JUMPDEST PUSH2 0x60 PUSH1 0x4 DUP1 CALLDATASIZE SUB DUP2 ADD SWAP1 PUSH2 0x5B SWAP2 SWAP1 PUSH2 0x299 JUMP JUMPDEST PUSH2 0xB2 JUMP JUMPDEST PUSH1 0x40 MLOAD PUSH2 0x6D SWAP2 SWAP1 PUSH2 0x3BD JUMP JUMPDEST PUSH1 0x40 MLOAD DUP1 SWAP2 SUB SWAP1 RETURN JUMPDEST PUSH2 0x7E PUSH2 0x15D JUMP JUMPDEST PUSH1 0x40 MLOAD PUSH2 0x8B SWAP2 SWAP1 PUSH2 0x43E JUMP JUMPDEST PUSH1 0x40 MLOAD DUP1 SWAP2 SUB SWAP1 RETURN JUMPDEST PUSH2 0x9C PUSH2 0x181 JUMP JUMPDEST PUSH1 0x40 MLOAD PUSH2 0xA9 SWAP2 SWAP1 PUSH2 0x5B4 JUMP JUMPDEST PUSH1 0x40 MLOAD DUP1 SWAP2 SUB SWAP1 RETURN JUMPDEST PUSH1 0x60 CALLER SWAP2 POP PUSH1 0x0 DUP1 SLOAD SWAP1 PUSH2 0x100 EXP SWAP1 DIV PUSH20 0xFFFFFFFFFFFFFFFFFFFFFFFFFFFFFFFFFFFFFFFF AND PUSH20 0xFFFFFFFFFFFFFFFFFFFFFFFFFFFFFFFFFFFFFFFF AND PUSH4 0x27C4EA34 DUP4 PUSH1 0x40 MLOAD DUP3 PUSH4 0xFFFFFFFF AND PUSH1 0xE0 SHL DUP2 MSTORE PUSH1 0x4 ADD PUSH2 0x110 SWAP2 SWAP1 PUSH2 0x5E5 JUMP JUMPDEST PUSH1 0x0 PUSH1 0x40 MLOAD DUP1 DUP4 SUB DUP2 DUP7 GAS STATICCALL ISZERO DUP1 ISZERO PUSH2 0x12D JUMPI RETURNDATASIZE PUSH1 0x0 DUP1 RETURNDATACOPY RETURNDATASIZE PUSH1 0x0 REVERT JUMPDEST POP POP POP POP PUSH1 0x40 MLOAD RETURNDATASIZE PUSH1 0x0 DUP3 RETURNDATACOPY RETURNDATASIZE PUSH1 0x1F NOT PUSH1 0x1F DUP3 ADD AND DUP3 ADD DUP1 PUSH1 0x40 MSTORE POP DUP2 ADD SWAP1 PUSH2 0x156 SWAP2 SWAP1 PUSH2 0x7C9 JUMP JUMPDEST SWAP1 POP SWAP2 SWAP1 POP JUMP JUMPDEST PUSH1 0x0 DUP1 SLOAD SWAP1 PUSH2 0x100 EXP SWAP1 DIV PUSH20 0xFFFFFFFFFFFFFFFFFFFFFFFFFFFFFFFFFFFFFFFF AND DUP2 JUMP JUMPDEST PUSH1 0x60 PUSH1 0x0 DUP1 SLOAD SWAP1 PUSH2 0x100 EXP SWAP1 DIV PUSH20 0xFFFFFFFFFFFFFFFFFFFFFFFFFFFFFFFFFFFFFFFF AND PUSH20 0xFFFFFFFFFFFFFFFFFFFFFFFFFFFFFFFFFFFFFFFF AND PUSH4 0x5DF7626E CALLER PUSH1 0x40 MLOAD DUP3 PUSH4 0xFFFFFFFF AND PUSH1 0xE0 SHL DUP2 MSTORE PUSH1 0x4 ADD PUSH2 0x1DC SWAP2 SWAP1 PUSH2 0x5E5 JUMP JUMPDEST PUSH1 0x0 PUSH1 0x40 MLOAD DUP1 DUP4 SUB DUP2 DUP7 GAS STATICCALL ISZERO DUP1 ISZERO PUSH2 0x1F9 JUMPI RETURNDATASIZE PUSH1 0x0 DUP1 RETURNDATACOPY RETURNDATASIZE PUSH1 0x0 REVERT JUMPDEST POP POP POP POP PUSH1 0x40 MLOAD RETURNDATASIZE PUSH1 0x0 DUP3 RETURNDATACOPY RETURNDATASIZE PUSH1 0x1F NOT PUSH1 0x1F DUP3 ADD AND DUP3 ADD DUP1 PUSH1 0x40 MSTORE POP DUP2 ADD SWAP1 PUSH2 0x222 SWAP2 SWAP1 PUSH2 0x999 JUMP JUMPDEST SWAP1 POP SWAP1 JUMP JUMPDEST PUSH1 0x0 PUSH1 0x40 MLOAD SWAP1 POP SWAP1 JUMP JUMPDEST PUSH1 0x0 DUP1 REVERT JUMPDEST PUSH1 0x0 DUP1 REVERT JUMPDEST PUSH1 0x0 PUSH20 0xFFFFFFFFFFFFFFFFFFFFFFFFFFFFFFFFFFFFFFFF DUP3 AND SWAP1 POP SWAP2 SWAP1 POP JUMP JUMPDEST PUSH1 0x0 PUSH2 0x266 DUP3 PUSH2 0x23B JUMP JUMPDEST SWAP1 POP SWAP2 SWAP1 POP JUMP JUMPDEST PUSH2 0x276 DUP2 PUSH2 0x25B JUMP JUMPDEST DUP2 EQ PUSH2 0x281 JUMPI PUSH1 0x0 DUP1 REVERT JUMPDEST POP JUMP JUMPDEST PUSH1 0x0 DUP2 CALLDATALOAD SWAP1 POP PUSH2 0x293 DUP2 PUSH2 0x26D JUMP JUMPDEST SWAP3 SWAP2 POP POP JUMP JUMPDEST PUSH1 0x0 PUSH1 0x20 DUP3 DUP5 SUB SLT ISZERO PUSH2 0x2AF JUMPI PUSH2 0x2AE PUSH2 0x231 JUMP JUMPDEST JUMPDEST PUSH1 0x0 PUSH2 0x2BD DUP5 DUP3 DUP6 ADD PUSH2 0x284 JUMP JUMPDEST SWAP2 POP POP SWAP3 SWAP2 POP POP JUMP JUMPDEST PUSH1 0x0 DUP2 MLOAD SWAP1 POP SWAP2 SWAP1 POP JUMP JUMPDEST PUSH1 0x0 DUP3 DUP3 MSTORE PUSH1 0x20 DUP3 ADD SWAP1 POP SWAP3 SWAP2 POP POP JUMP JUMPDEST PUSH1 0x0 DUP2 SWAP1 POP PUSH1 0x20 DUP3 ADD SWAP1 POP SWAP2 SWAP1 POP JUMP JUMPDEST PUSH1 0x0 DUP2 SWAP1 POP SWAP2 SWAP1 POP JUMP JUMPDEST PUSH2 0x305 DUP2 PUSH2 0x2F2 JUMP JUMPDEST DUP3 MSTORE POP POP JUMP JUMPDEST PUSH1 0x40 DUP3 ADD PUSH1 0x0 DUP3 ADD MLOAD PUSH2 0x321 PUSH1 0x0 DUP6 ADD DUP3 PUSH2 0x2FC JUMP JUMPDEST POP PUSH1 0x20 DUP3 ADD MLOAD PUSH2 0x334 PUSH1 0x20 DUP6 ADD DUP3 PUSH2 0x2FC JUMP JUMPDEST POP POP POP POP JUMP JUMPDEST PUSH1 0x0 PUSH2 0x346 DUP4 DUP4 PUSH2 0x30B JUMP JUMPDEST PUSH1 0x40 DUP4 ADD SWAP1 POP SWAP3 SWAP2 POP POP JUMP JUMPDEST PUSH1 0x0 PUSH1 0x20 DUP3 ADD SWAP1 POP SWAP2 SWAP1 POP JUMP JUMPDEST PUSH1 0x0 PUSH2 0x36A DUP3 PUSH2 0x2C6 JUMP JUMPDEST PUSH2 0x374 DUP2 DUP6 PUSH2 0x2D1 JUMP JUMPDEST SWAP4 POP PUSH2 0x37F DUP4 PUSH2 0x2E2 JUMP JUMPDEST DUP1 PUSH1 0x0 JUMPDEST DUP4 DUP2 LT ISZERO PUSH2 0x3B0 JUMPI DUP2 MLOAD PUSH2 0x397 DUP9 DUP3 PUSH2 0x33A JUMP JUMPDEST SWAP8 POP PUSH2 0x3A2 DUP4 PUSH2 0x352 JUMP JUMPDEST SWAP3 POP POP PUSH1 0x1 DUP2 ADD SWAP1 POP PUSH2 0x383 JUMP JUMPDEST POP DUP6 SWAP4 POP POP POP POP SWAP3 SWAP2 POP POP JUMP JUMPDEST PUSH1 0x0 PUSH1 0x20 DUP3 ADD SWAP1 POP DUP2 DUP2 SUB PUSH1 0x0 DUP4 ADD MSTORE PUSH2 0x3D7 DUP2 DUP5 PUSH2 0x35F JUMP JUMPDEST SWAP1 POP SWAP3 SWAP2 POP POP JUMP JUMPDEST PUSH1 0x0 DUP2 SWAP1 POP SWAP2 SWAP1 POP JUMP JUMPDEST PUSH1 0x0 PUSH2 0x404 PUSH2 0x3FF PUSH2 0x3FA DUP5 PUSH2 0x23B JUMP JUMPDEST PUSH2 0x3DF JUMP JUMPDEST PUSH2 0x23B JUMP JUMPDEST SWAP1 POP SWAP2 SWAP1 POP JUMP JUMPDEST PUSH1 0x0 PUSH2 0x416 DUP3 PUSH2 0x3E9 JUMP JUMPDEST SWAP1 POP SWAP2 SWAP1 POP JUMP JUMPDEST PUSH1 0x0 PUSH2 0x428 DUP3 PUSH2 0x40B JUMP JUMPDEST SWAP1 POP SWAP2 SWAP1 POP JUMP JUMPDEST PUSH2 0x438 DUP2 PUSH2 0x41D JUMP JUMPDEST DUP3 MSTORE POP POP JUMP JUMPDEST PUSH1 0x0 PUSH1 0x20 DUP3 ADD SWAP1 POP PUSH2 0x453 PUSH1 0x0 DUP4 ADD DUP5 PUSH2 0x42F JUMP JUMPDEST SWAP3 SWAP2 POP POP JUMP JUMPDEST PUSH1 0x0 DUP2 MLOAD SWAP1 POP SWAP2 SWAP1 POP JUMP JUMPDEST PUSH1 0x0 DUP3 DUP3 MSTORE PUSH1 0x20 DUP3 ADD SWAP1 POP SWAP3 SWAP2 POP POP JUMP JUMPDEST PUSH1 0x0 DUP2 SWAP1 POP PUSH1 0x20 DUP3 ADD SWAP1 POP SWAP2 SWAP1 POP JUMP JUMPDEST PUSH1 0x0 DUP2 MLOAD SWAP1 POP SWAP2 SWAP1 POP JUMP JUMPDEST PUSH1 0x0 DUP3 DUP3 MSTORE PUSH1 0x20 DUP3 ADD SWAP1 POP SWAP3 SWAP2 POP POP JUMP JUMPDEST PUSH1 0x0 JUMPDEST DUP4 DUP2 LT ISZERO PUSH2 0x4BF JUMPI DUP1 DUP3 ADD MLOAD DUP2 DUP5 ADD MSTORE PUSH1 0x20 DUP2 ADD SWAP1 POP PUSH2 0x4A4 JUMP JUMPDEST DUP4 DUP2 GT ISZERO PUSH2 0x4CE JUMPI PUSH1 0x0 DUP5 DUP5 ADD MSTORE JUMPDEST POP POP POP POP JUMP JUMPDEST PUSH1 0x0 PUSH1 0x1F NOT PUSH1 0x1F DUP4 ADD AND SWAP1 POP SWAP2 SWAP1 POP JUMP JUMPDEST PUSH1 0x0 PUSH2 0x4F0 DUP3 PUSH2 0x485 JUMP JUMPDEST PUSH2 0x4FA DUP2 DUP6 PUSH2 0x490 JUMP JUMPDEST SWAP4 POP PUSH2 0x50A DUP2 DUP6 PUSH1 0x20 DUP7 ADD PUSH2 0x4A1 JUMP JUMPDEST PUSH2 0x513 DUP2 PUSH2 0x4D4 JUMP JUMPDEST DUP5 ADD SWAP2 POP POP SWAP3 SWAP2 POP POP JUMP JUMPDEST PUSH1 0x0 PUSH2 0x52A DUP4 DUP4 PUSH2 0x4E5 JUMP JUMPDEST SWAP1 POP SWAP3 SWAP2 POP POP JUMP JUMPDEST PUSH1 0x0 PUSH1 0x20 DUP3 ADD SWAP1 POP SWAP2 SWAP1 POP JUMP JUMPDEST PUSH1 0x0 PUSH2 0x54A DUP3 PUSH2 0x459 JUMP JUMPDEST PUSH2 0x554 DUP2 DUP6 PUSH2 0x464 JUMP JUMPDEST SWAP4 POP DUP4 PUSH1 0x20 DUP3 MUL DUP6 ADD PUSH2 0x566 DUP6 PUSH2 0x475 JUMP JUMPDEST DUP1 PUSH1 0x0 JUMPDEST DUP6 DUP2 LT ISZERO PUSH2 0x5A2 JUMPI DUP5 DUP5 SUB DUP10 MSTORE DUP2 MLOAD PUSH2 0x583 DUP6 DUP3 PUSH2 0x51E JUMP JUMPDEST SWAP5 POP PUSH2 0x58E DUP4 PUSH2 0x532 JUMP JUMPDEST SWAP3 POP PUSH1 0x20 DUP11 ADD SWAP10 POP POP PUSH1 0x1 DUP2 ADD SWAP1 POP PUSH2 0x56A JUMP JUMPDEST POP DUP3 SWAP8 POP DUP8 SWAP6 POP POP POP POP POP POP SWAP3 SWAP2 POP POP JUMP JUMPDEST PUSH1 0x0 PUSH1 0x20 DUP3 ADD SWAP1 POP DUP2 DUP2 SUB PUSH1 0x0 DUP4 ADD MSTORE PUSH2 0x5CE DUP2 DUP5 PUSH2 0x53F JUMP JUMPDEST SWAP1 POP SWAP3 SWAP2 POP POP JUMP JUMPDEST PUSH2 0x5DF DUP2 PUSH2 0x25B JUMP JUMPDEST DUP3 MSTORE POP POP JUMP JUMPDEST PUSH1 0x0 PUSH1 0x20 DUP3 ADD SWAP1 POP PUSH2 0x5FA PUSH1 0x0 DUP4 ADD DUP5 PUSH2 0x5D6 JUMP JUMPDEST SWAP3 SWAP2 POP POP JUMP JUMPDEST PUSH1 0x0 DUP1 REVERT JUMPDEST PUSH32 0x4E487B7100000000000000000000000000000000000000000000000000000000 PUSH1 0x0 MSTORE PUSH1 0x41 PUSH1 0x4 MSTORE PUSH1 0x24 PUSH1 0x0 REVERT JUMPDEST PUSH2 0x63D DUP3 PUSH2 0x4D4 JUMP JUMPDEST DUP2 ADD DUP2 DUP2 LT PUSH8 0xFFFFFFFFFFFFFFFF DUP3 GT OR ISZERO PUSH2 0x65C JUMPI PUSH2 0x65B PUSH2 0x605 JUMP JUMPDEST JUMPDEST DUP1 PUSH1 0x40 MSTORE POP POP POP JUMP JUMPDEST PUSH1 0x0 PUSH2 0x66F PUSH2 0x227 JUMP JUMPDEST SWAP1 POP PUSH2 0x67B DUP3 DUP3 PUSH2 0x634 JUMP JUMPDEST SWAP2 SWAP1 POP JUMP JUMPDEST PUSH1 0x0 PUSH8 0xFFFFFFFFFFFFFFFF DUP3 GT ISZERO PUSH2 0x69B JUMPI PUSH2 0x69A PUSH2 0x605 JUMP JUMPDEST JUMPDEST PUSH1 0x20 DUP3 MUL SWAP1 POP PUSH1 0x20 DUP2 ADD SWAP1 POP SWAP2 SWAP1 POP JUMP JUMPDEST PUSH1 0x0 DUP1 REVERT JUMPDEST PUSH1 0x0 DUP1 REVERT JUMPDEST PUSH2 0x6BF DUP2 PUSH2 0x2F2 JUMP JUMPDEST DUP2 EQ PUSH2 0x6CA JUMPI PUSH1 0x0 DUP1 REVERT JUMPDEST POP JUMP JUMPDEST PUSH1 0x0 DUP2 MLOAD SWAP1 POP PUSH2 0x6DC DUP2 PUSH2 0x6B6 JUMP JUMPDEST SWAP3 SWAP2 POP POP JUMP JUMPDEST PUSH1 0x0 PUSH1 0x40 DUP3 DUP5 SUB SLT ISZERO PUSH2 0x6F8 JUMPI PUSH2 0x6F7 PUSH2 0x6B1 JUMP JUMPDEST JUMPDEST PUSH2 0x702 PUSH1 0x40 PUSH2 0x665 JUMP JUMPDEST SWAP1 POP PUSH1 0x0 PUSH2 0x712 DUP5 DUP3 DUP6 ADD PUSH2 0x6CD JUMP JUMPDEST PUSH1 0x0 DUP4 ADD MSTORE POP PUSH1 0x20 PUSH2 0x726 DUP5 DUP3 DUP6 ADD PUSH2 0x6CD JUMP JUMPDEST PUSH1 0x20 DUP4 ADD MSTORE POP SWAP3 SWAP2 POP POP JUMP JUMPDEST PUSH1 0x0 PUSH2 0x745 PUSH2 0x740 DUP5 PUSH2 0x680 JUMP JUMPDEST PUSH2 0x665 JUMP JUMPDEST SWAP1 POP DUP1 DUP4 DUP3 MSTORE PUSH1 0x20 DUP3 ADD SWAP1 POP PUSH1 0x40 DUP5 MUL DUP4 ADD DUP6 DUP2 GT ISZERO PUSH2 0x768 JUMPI PUSH2 0x767 PUSH2 0x6AC JUMP JUMPDEST JUMPDEST DUP4 JUMPDEST DUP2 DUP2 LT ISZERO PUSH2 0x791 JUMPI DUP1 PUSH2 0x77D DUP9 DUP3 PUSH2 0x6E2 JUMP JUMPDEST DUP5 MSTORE PUSH1 0x20 DUP5 ADD SWAP4 POP POP PUSH1 0x40 DUP2 ADD SWAP1 POP PUSH2 0x76A JUMP JUMPDEST POP POP POP SWAP4 SWAP3 POP POP POP JUMP JUMPDEST PUSH1 0x0 DUP3 PUSH1 0x1F DUP4 ADD SLT PUSH2 0x7B0 JUMPI PUSH2 0x7AF PUSH2 0x600 JUMP JUMPDEST JUMPDEST DUP2 MLOAD PUSH2 0x7C0 DUP5 DUP3 PUSH1 0x20 DUP7 ADD PUSH2 0x732 JUMP JUMPDEST SWAP2 POP POP SWAP3 SWAP2 POP POP JUMP JUMPDEST PUSH1 0x0 PUSH1 0x20 DUP3 DUP5 SUB SLT ISZERO PUSH2 0x7DF JUMPI PUSH2 0x7DE PUSH2 0x231 JUMP JUMPDEST JUMPDEST PUSH1 0x0 DUP3 ADD MLOAD PUSH8 0xFFFFFFFFFFFFFFFF DUP2 GT ISZERO PUSH2 0x7FD JUMPI PUSH2 0x7FC PUSH2 0x236 JUMP JUMPDEST JUMPDEST PUSH2 0x809 DUP5 DUP3 DUP6 ADD PUSH2 0x79B JUMP JUMPDEST SWAP2 POP POP SWAP3 SWAP2 POP POP JUMP JUMPDEST PUSH1 0x0 PUSH8 0xFFFFFFFFFFFFFFFF DUP3 GT ISZERO PUSH2 0x82D JUMPI PUSH2 0x82C PUSH2 0x605 JUMP JUMPDEST JUMPDEST PUSH1 0x20 DUP3 MUL SWAP1 POP PUSH1 0x20 DUP2 ADD SWAP1 POP SWAP2 SWAP1 POP JUMP JUMPDEST PUSH1 0x0 DUP1 REVERT JUMPDEST PUSH1 0x0 PUSH8 0xFFFFFFFFFFFFFFFF DUP3 GT ISZERO PUSH2 0x85E JUMPI PUSH2 0x85D PUSH2 0x605 JUMP JUMPDEST JUMPDEST PUSH2 0x867 DUP3 PUSH2 0x4D4 JUMP JUMPDEST SWAP1 POP PUSH1 0x20 DUP2 ADD SWAP1 POP SWAP2 SWAP1 POP JUMP JUMPDEST PUSH1 0x0 PUSH2 0x887 PUSH2 0x882 DUP5 PUSH2 0x843 JUMP JUMPDEST PUSH2 0x665 JUMP JUMPDEST SWAP1 POP DUP3 DUP2 MSTORE PUSH1 0x20 DUP2 ADD DUP5 DUP5 DUP5 ADD GT ISZERO PUSH2 0x8A3 JUMPI PUSH2 0x8A2 PUSH2 0x83E JUMP JUMPDEST JUMPDEST PUSH2 0x8AE DUP5 DUP3 DUP6 PUSH2 0x4A1 JUMP JUMPDEST POP SWAP4 SWAP3 POP POP POP JUMP JUMPDEST PUSH1 0x0 DUP3 PUSH1 0x1F DUP4 ADD SLT PUSH2 0x8CB JUMPI PUSH2 0x8CA PUSH2 0x600 JUMP JUMPDEST JUMPDEST DUP2 MLOAD PUSH2 0x8DB DUP5 DUP3 PUSH1 0x20 DUP7 ADD PUSH2 0x874 JUMP JUMPDEST SWAP2 POP POP SWAP3 SWAP2 POP POP JUMP JUMPDEST PUSH1 0x0 PUSH2 0x8F7 PUSH2 0x8F2 DUP5 PUSH2 0x812 JUMP JUMPDEST PUSH2 0x665 JUMP JUMPDEST SWAP1 POP DUP1 DUP4 DUP3 MSTORE PUSH1 0x20 DUP3 ADD SWAP1 POP PUSH1 0x20 DUP5 MUL DUP4 ADD DUP6 DUP2 GT ISZERO PUSH2 0x91A JUMPI PUSH2 0x919 PUSH2 0x6AC JUMP JUMPDEST JUMPDEST DUP4 JUMPDEST DUP2 DUP2 LT ISZERO PUSH2 0x961 JUMPI DUP1 MLOAD PUSH8 0xFFFFFFFFFFFFFFFF DUP2 GT ISZERO PUSH2 0x93F JUMPI PUSH2 0x93E PUSH2 0x600 JUMP JUMPDEST JUMPDEST DUP1 DUP7 ADD PUSH2 0x94C DUP10 DUP3 PUSH2 0x8B6 JUMP JUMPDEST DUP6 MSTORE PUSH1 0x20 DUP6 ADD SWAP5 POP POP POP PUSH1 0x20 DUP2 ADD SWAP1 POP PUSH2 0x91C JUMP JUMPDEST POP POP POP SWAP4 SWAP3 POP POP POP JUMP JUMPDEST PUSH1 0x0 DUP3 PUSH1 0x1F DUP4 ADD SLT PUSH2 0x980 JUMPI PUSH2 0x97F PUSH2 0x600 JUMP JUMPDEST JUMPDEST DUP2 MLOAD PUSH2 0x990 DUP5 DUP3 PUSH1 0x20 DUP7 ADD PUSH2 0x8E4 JUMP JUMPDEST SWAP2 POP POP SWAP3 SWAP2 POP POP JUMP JUMPDEST PUSH1 0x0 PUSH1 0x20 DUP3 DUP5 SUB SLT ISZERO PUSH2 0x9AF JUMPI PUSH2 0x9AE PUSH2 0x231 JUMP JUMPDEST JUMPDEST PUSH1 0x0 DUP3 ADD MLOAD PUSH8 0xFFFFFFFFFFFFFFFF DUP2 GT ISZERO PUSH2 0x9CD JUMPI PUSH2 0x9CC PUSH2 0x236 JUMP JUMPDEST JUMPDEST PUSH2 0x9D9 DUP5 DUP3 DUP6 ADD PUSH2 0x96B JUMP JUMPDEST SWAP2 POP POP SWAP3 SWAP2 POP POP JUMP INVALID LOG2 PUSH5 0x6970667358 0x22 SLT KECCAK256 SHL MUL 0x5D 0xAA 0x2A 0xC0 JUMP BLOCKHASH DUP14 0x23 SWAP10 0xE4 POP 0x4C AND CALLDATACOPY 0x49 PUSH10 0xE41D0D26D4ED8F5D907C 0xCB PUSH14 0xA14464736F6C634300080B003300 "
		},
		"gasEstimates": {
			"creation": {
				"codeDepositCost": "516800",
				"executionCost": "infinite",
				"totalCost": "infinite"
			},
			"external": {
				"_getMyCourses()": "infinite",
				"getAllMarks(address)": "infinite",
				"universityContract()": "infinite"
			}
		},
		"methodIdentifiers": {
			"_getMyCourses()": "c99d599f",
			"getAllMarks(address)": "27c4ea34",
			"universityContract()": "a4aa1e70"
		}
	},
	"abi": [
		{
			"inputs": [
				{
					"internalType": "address",
					"name": "_universityContractAddress",
					"type": "address"
				}
			],
			"stateMutability": "nonpayable",
			"type": "constructor"
		},
		{
			"inputs": [],
			"name": "_getMyCourses",
			"outputs": [
				{
					"internalType": "string[]",
					"name": "",
					"type": "string[]"
				}
			],
			"stateMutability": "view",
			"type": "function"
		},
		{
			"inputs": [
				{
					"internalType": "address",
					"name": "studentAddress",
					"type": "address"
				}
			],
			"name": "getAllMarks",
			"outputs": [
				{
					"components": [
						{
							"internalType": "uint256",
							"name": "courseCode",
							"type": "uint256"
						},
						{
							"internalType": "uint256",
							"name": "givenMark",
							"type": "uint256"
						}
					],
					"internalType": "struct UniversityContract.Mark[]",
					"name": "",
					"type": "tuple[]"
				}
			],
			"stateMutability": "view",
			"type": "function"
		},
		{
			"inputs": [],
			"name": "universityContract",
			"outputs": [
				{
					"internalType": "contract UniversityContract",
					"name": "",
					"type": "address"
				}
			],
			"stateMutability": "view",
			"type": "function"
		}
	]
}