{
	"data": {
		"bytecode": {
			"linkReferences": {},
			"object": "608060405234801561001057600080fd5b50604051610ac5380380610ac5833981810160405281019061003291906100db565b806000806101000a81548173ffffffffffffffffffffffffffffffffffffffff021916908373ffffffffffffffffffffffffffffffffffffffff16021790555050610108565b600080fd5b600073ffffffffffffffffffffffffffffffffffffffff82169050919050565b60006100a88261007d565b9050919050565b6100b88161009d565b81146100c357600080fd5b50565b6000815190506100d5816100af565b92915050565b6000602082840312156100f1576100f0610078565b5b60006100ff848285016100c6565b91505092915050565b6109ae806101176000396000f3fe608060405234801561001057600080fd5b50600436106100415760003560e01c80634d632c6614610046578063a4aa1e7014610064578063c99d599f14610082575b600080fd5b61004e6100a0565b60405161005b919061030d565b60405180910390f35b61006c61014c565b60405161007991906103ae565b60405180910390f35b61008a610170565b6040516100979190610524565b60405180910390f35b6060600033905060008054906101000a900473ffffffffffffffffffffffffffffffffffffffff1673ffffffffffffffffffffffffffffffffffffffff166327c4ea34826040518263ffffffff1660e01b81526004016101009190610567565b600060405180830381865afa15801561011d573d6000803e3d6000fd5b505050506040513d6000823e3d601f19601f82011682018060405250810190610146919061075f565b91505090565b60008054906101000a900473ffffffffffffffffffffffffffffffffffffffff1681565b606060008054906101000a900473ffffffffffffffffffffffffffffffffffffffff1673ffffffffffffffffffffffffffffffffffffffff16635df7626e336040518263ffffffff1660e01b81526004016101cb9190610567565b600060405180830381865afa1580156101e8573d6000803e3d6000fd5b505050506040513d6000823e3d601f19601f82011682018060405250810190610211919061092f565b905090565b600081519050919050565b600082825260208201905092915050565b6000819050602082019050919050565b6000819050919050565b61025581610242565b82525050565b604082016000820151610271600085018261024c565b506020820151610284602085018261024c565b50505050565b6000610296838361025b565b60408301905092915050565b6000602082019050919050565b60006102ba82610216565b6102c48185610221565b93506102cf83610232565b8060005b838110156103005781516102e7888261028a565b97506102f2836102a2565b9250506001810190506102d3565b5085935050505092915050565b6000602082019050818103600083015261032781846102af565b905092915050565b600073ffffffffffffffffffffffffffffffffffffffff82169050919050565b6000819050919050565b600061037461036f61036a8461032f565b61034f565b61032f565b9050919050565b600061038682610359565b9050919050565b60006103988261037b565b9050919050565b6103a88161038d565b82525050565b60006020820190506103c3600083018461039f565b92915050565b600081519050919050565b600082825260208201905092915050565b6000819050602082019050919050565b600081519050919050565b600082825260208201905092915050565b60005b8381101561042f578082015181840152602081019050610414565b8381111561043e576000848401525b50505050565b6000601f19601f8301169050919050565b6000610460826103f5565b61046a8185610400565b935061047a818560208601610411565b61048381610444565b840191505092915050565b600061049a8383610455565b905092915050565b6000602082019050919050565b60006104ba826103c9565b6104c481856103d4565b9350836020820285016104d6856103e5565b8060005b8581101561051257848403895281516104f3858261048e565b94506104fe836104a2565b925060208a019950506001810190506104da565b50829750879550505050505092915050565b6000602082019050818103600083015261053e81846104af565b905092915050565b60006105518261032f565b9050919050565b61056181610546565b82525050565b600060208201905061057c6000830184610558565b92915050565b6000604051905090565b600080fd5b600080fd5b600080fd5b7f4e487b7100000000000000000000000000000000000000000000000000000000600052604160045260246000fd5b6105d382610444565b810181811067ffffffffffffffff821117156105f2576105f161059b565b5b80604052505050565b6000610605610582565b905061061182826105ca565b919050565b600067ffffffffffffffff8211156106315761063061059b565b5b602082029050602081019050919050565b600080fd5b600080fd5b61065581610242565b811461066057600080fd5b50565b6000815190506106728161064c565b92915050565b60006040828403121561068e5761068d610647565b5b61069860406105fb565b905060006106a884828501610663565b60008301525060206106bc84828501610663565b60208301525092915050565b60006106db6106d684610616565b6105fb565b905080838252602082019050604084028301858111156106fe576106fd610642565b5b835b8181101561072757806107138882610678565b845260208401935050604081019050610700565b5050509392505050565b600082601f83011261074657610745610596565b5b81516107568482602086016106c8565b91505092915050565b6000602082840312156107755761077461058c565b5b600082015167ffffffffffffffff81111561079357610792610591565b5b61079f84828501610731565b91505092915050565b600067ffffffffffffffff8211156107c3576107c261059b565b5b602082029050602081019050919050565b600080fd5b600067ffffffffffffffff8211156107f4576107f361059b565b5b6107fd82610444565b9050602081019050919050565b600061081d610818846107d9565b6105fb565b905082815260208101848484011115610839576108386107d4565b5b610844848285610411565b509392505050565b600082601f83011261086157610860610596565b5b815161087184826020860161080a565b91505092915050565b600061088d610888846107a8565b6105fb565b905080838252602082019050602084028301858111156108b0576108af610642565b5b835b818110156108f757805167ffffffffffffffff8111156108d5576108d4610596565b5b8086016108e2898261084c565b855260208501945050506020810190506108b2565b5050509392505050565b600082601f83011261091657610915610596565b5b815161092684826020860161087a565b91505092915050565b6000602082840312156109455761094461058c565b5b600082015167ffffffffffffffff81111561096357610962610591565b5b61096f84828501610901565b9150509291505056fea264697066735822122045b6cc330297d04a415b65a536a5cf19b134079429802c6161bb211c2e56d89d64736f6c634300080b0033",
			"opcodes": "PUSH1 0x80 PUSH1 0x40 MSTORE CALLVALUE DUP1 ISZERO PUSH2 0x10 JUMPI PUSH1 0x0 DUP1 REVERT JUMPDEST POP PUSH1 0x40 MLOAD PUSH2 0xAC5 CODESIZE SUB DUP1 PUSH2 0xAC5 DUP4 CODECOPY DUP2 DUP2 ADD PUSH1 0x40 MSTORE DUP2 ADD SWAP1 PUSH2 0x32 SWAP2 SWAP1 PUSH2 0xDB JUMP JUMPDEST DUP1 PUSH1 0x0 DUP1 PUSH2 0x100 EXP DUP2 SLOAD DUP2 PUSH20 0xFFFFFFFFFFFFFFFFFFFFFFFFFFFFFFFFFFFFFFFF MUL NOT AND SWAP1 DUP4 PUSH20 0xFFFFFFFFFFFFFFFFFFFFFFFFFFFFFFFFFFFFFFFF AND MUL OR SWAP1 SSTORE POP POP PUSH2 0x108 JUMP JUMPDEST PUSH1 0x0 DUP1 REVERT JUMPDEST PUSH1 0x0 PUSH20 0xFFFFFFFFFFFFFFFFFFFFFFFFFFFFFFFFFFFFFFFF DUP3 AND SWAP1 POP SWAP2 SWAP1 POP JUMP JUMPDEST PUSH1 0x0 PUSH2 0xA8 DUP3 PUSH2 0x7D JUMP JUMPDEST SWAP1 POP SWAP2 SWAP1 POP JUMP JUMPDEST PUSH2 0xB8 DUP2 PUSH2 0x9D JUMP JUMPDEST DUP2 EQ PUSH2 0xC3 JUMPI PUSH1 0x0 DUP1 REVERT JUMPDEST POP JUMP JUMPDEST PUSH1 0x0 DUP2 MLOAD SWAP1 POP PUSH2 0xD5 DUP2 PUSH2 0xAF JUMP JUMPDEST SWAP3 SWAP2 POP POP JUMP JUMPDEST PUSH1 0x0 PUSH1 0x20 DUP3 DUP5 SUB SLT ISZERO PUSH2 0xF1 JUMPI PUSH2 0xF0 PUSH2 0x78 JUMP JUMPDEST JUMPDEST PUSH1 0x0 PUSH2 0xFF DUP5 DUP3 DUP6 ADD PUSH2 0xC6 JUMP JUMPDEST SWAP2 POP POP SWAP3 SWAP2 POP POP JUMP JUMPDEST PUSH2 0x9AE DUP1 PUSH2 0x117 PUSH1 0x0 CODECOPY PUSH1 0x0 RETURN INVALID PUSH1 0x80 PUSH1 0x40 MSTORE CALLVALUE DUP1 ISZERO PUSH2 0x10 JUMPI PUSH1 0x0 DUP1 REVERT JUMPDEST POP PUSH1 0x4 CALLDATASIZE LT PUSH2 0x41 JUMPI PUSH1 0x0 CALLDATALOAD PUSH1 0xE0 SHR DUP1 PUSH4 0x4D632C66 EQ PUSH2 0x46 JUMPI DUP1 PUSH4 0xA4AA1E70 EQ PUSH2 0x64 JUMPI DUP1 PUSH4 0xC99D599F EQ PUSH2 0x82 JUMPI JUMPDEST PUSH1 0x0 DUP1 REVERT JUMPDEST PUSH2 0x4E PUSH2 0xA0 JUMP JUMPDEST PUSH1 0x40 MLOAD PUSH2 0x5B SWAP2 SWAP1 PUSH2 0x30D JUMP JUMPDEST PUSH1 0x40 MLOAD DUP1 SWAP2 SUB SWAP1 RETURN JUMPDEST PUSH2 0x6C PUSH2 0x14C JUMP JUMPDEST PUSH1 0x40 MLOAD PUSH2 0x79 SWAP2 SWAP1 PUSH2 0x3AE JUMP JUMPDEST PUSH1 0x40 MLOAD DUP1 SWAP2 SUB SWAP1 RETURN JUMPDEST PUSH2 0x8A PUSH2 0x170 JUMP JUMPDEST PUSH1 0x40 MLOAD PUSH2 0x97 SWAP2 SWAP1 PUSH2 0x524 JUMP JUMPDEST PUSH1 0x40 MLOAD DUP1 SWAP2 SUB SWAP1 RETURN JUMPDEST PUSH1 0x60 PUSH1 0x0 CALLER SWAP1 POP PUSH1 0x0 DUP1 SLOAD SWAP1 PUSH2 0x100 EXP SWAP1 DIV PUSH20 0xFFFFFFFFFFFFFFFFFFFFFFFFFFFFFFFFFFFFFFFF AND PUSH20 0xFFFFFFFFFFFFFFFFFFFFFFFFFFFFFFFFFFFFFFFF AND PUSH4 0x27C4EA34 DUP3 PUSH1 0x40 MLOAD DUP3 PUSH4 0xFFFFFFFF AND PUSH1 0xE0 SHL DUP2 MSTORE PUSH1 0x4 ADD PUSH2 0x100 SWAP2 SWAP1 PUSH2 0x567 JUMP JUMPDEST PUSH1 0x0 PUSH1 0x40 MLOAD DUP1 DUP4 SUB DUP2 DUP7 GAS STATICCALL ISZERO DUP1 ISZERO PUSH2 0x11D JUMPI RETURNDATASIZE PUSH1 0x0 DUP1 RETURNDATACOPY RETURNDATASIZE PUSH1 0x0 REVERT JUMPDEST POP POP POP POP PUSH1 0x40 MLOAD RETURNDATASIZE PUSH1 0x0 DUP3 RETURNDATACOPY RETURNDATASIZE PUSH1 0x1F NOT PUSH1 0x1F DUP3 ADD AND DUP3 ADD DUP1 PUSH1 0x40 MSTORE POP DUP2 ADD SWAP1 PUSH2 0x146 SWAP2 SWAP1 PUSH2 0x75F JUMP JUMPDEST SWAP2 POP POP SWAP1 JUMP JUMPDEST PUSH1 0x0 DUP1 SLOAD SWAP1 PUSH2 0x100 EXP SWAP1 DIV PUSH20 0xFFFFFFFFFFFFFFFFFFFFFFFFFFFFFFFFFFFFFFFF AND DUP2 JUMP JUMPDEST PUSH1 0x60 PUSH1 0x0 DUP1 SLOAD SWAP1 PUSH2 0x100 EXP SWAP1 DIV PUSH20 0xFFFFFFFFFFFFFFFFFFFFFFFFFFFFFFFFFFFFFFFF AND PUSH20 0xFFFFFFFFFFFFFFFFFFFFFFFFFFFFFFFFFFFFFFFF AND PUSH4 0x5DF7626E CALLER PUSH1 0x40 MLOAD DUP3 PUSH4 0xFFFFFFFF AND PUSH1 0xE0 SHL DUP2 MSTORE PUSH1 0x4 ADD PUSH2 0x1CB SWAP2 SWAP1 PUSH2 0x567 JUMP JUMPDEST PUSH1 0x0 PUSH1 0x40 MLOAD DUP1 DUP4 SUB DUP2 DUP7 GAS STATICCALL ISZERO DUP1 ISZERO PUSH2 0x1E8 JUMPI RETURNDATASIZE PUSH1 0x0 DUP1 RETURNDATACOPY RETURNDATASIZE PUSH1 0x0 REVERT JUMPDEST POP POP POP POP PUSH1 0x40 MLOAD RETURNDATASIZE PUSH1 0x0 DUP3 RETURNDATACOPY RETURNDATASIZE PUSH1 0x1F NOT PUSH1 0x1F DUP3 ADD AND DUP3 ADD DUP1 PUSH1 0x40 MSTORE POP DUP2 ADD SWAP1 PUSH2 0x211 SWAP2 SWAP1 PUSH2 0x92F JUMP JUMPDEST SWAP1 POP SWAP1 JUMP JUMPDEST PUSH1 0x0 DUP2 MLOAD SWAP1 POP SWAP2 SWAP1 POP JUMP JUMPDEST PUSH1 0x0 DUP3 DUP3 MSTORE PUSH1 0x20 DUP3 ADD SWAP1 POP SWAP3 SWAP2 POP POP JUMP JUMPDEST PUSH1 0x0 DUP2 SWAP1 POP PUSH1 0x20 DUP3 ADD SWAP1 POP SWAP2 SWAP1 POP JUMP JUMPDEST PUSH1 0x0 DUP2 SWAP1 POP SWAP2 SWAP1 POP JUMP JUMPDEST PUSH2 0x255 DUP2 PUSH2 0x242 JUMP JUMPDEST DUP3 MSTORE POP POP JUMP JUMPDEST PUSH1 0x40 DUP3 ADD PUSH1 0x0 DUP3 ADD MLOAD PUSH2 0x271 PUSH1 0x0 DUP6 ADD DUP3 PUSH2 0x24C JUMP JUMPDEST POP PUSH1 0x20 DUP3 ADD MLOAD PUSH2 0x284 PUSH1 0x20 DUP6 ADD DUP3 PUSH2 0x24C JUMP JUMPDEST POP POP POP POP JUMP JUMPDEST PUSH1 0x0 PUSH2 0x296 DUP4 DUP4 PUSH2 0x25B JUMP JUMPDEST PUSH1 0x40 DUP4 ADD SWAP1 POP SWAP3 SWAP2 POP POP JUMP JUMPDEST PUSH1 0x0 PUSH1 0x20 DUP3 ADD SWAP1 POP SWAP2 SWAP1 POP JUMP JUMPDEST PUSH1 0x0 PUSH2 0x2BA DUP3 PUSH2 0x216 JUMP JUMPDEST PUSH2 0x2C4 DUP2 DUP6 PUSH2 0x221 JUMP JUMPDEST SWAP4 POP PUSH2 0x2CF DUP4 PUSH2 0x232 JUMP JUMPDEST DUP1 PUSH1 0x0 JUMPDEST DUP4 DUP2 LT ISZERO PUSH2 0x300 JUMPI DUP2 MLOAD PUSH2 0x2E7 DUP9 DUP3 PUSH2 0x28A JUMP JUMPDEST SWAP8 POP PUSH2 0x2F2 DUP4 PUSH2 0x2A2 JUMP JUMPDEST SWAP3 POP POP PUSH1 0x1 DUP2 ADD SWAP1 POP PUSH2 0x2D3 JUMP JUMPDEST POP DUP6 SWAP4 POP POP POP POP SWAP3 SWAP2 POP POP JUMP JUMPDEST PUSH1 0x0 PUSH1 0x20 DUP3 ADD SWAP1 POP DUP2 DUP2 SUB PUSH1 0x0 DUP4 ADD MSTORE PUSH2 0x327 DUP2 DUP5 PUSH2 0x2AF JUMP JUMPDEST SWAP1 POP SWAP3 SWAP2 POP POP JUMP JUMPDEST PUSH1 0x0 PUSH20 0xFFFFFFFFFFFFFFFFFFFFFFFFFFFFFFFFFFFFFFFF DUP3 AND SWAP1 POP SWAP2 SWAP1 POP JUMP JUMPDEST PUSH1 0x0 DUP2 SWAP1 POP SWAP2 SWAP1 POP JUMP JUMPDEST PUSH1 0x0 PUSH2 0x374 PUSH2 0x36F PUSH2 0x36A DUP5 PUSH2 0x32F JUMP JUMPDEST PUSH2 0x34F JUMP JUMPDEST PUSH2 0x32F JUMP JUMPDEST SWAP1 POP SWAP2 SWAP1 POP JUMP JUMPDEST PUSH1 0x0 PUSH2 0x386 DUP3 PUSH2 0x359 JUMP JUMPDEST SWAP1 POP SWAP2 SWAP1 POP JUMP JUMPDEST PUSH1 0x0 PUSH2 0x398 DUP3 PUSH2 0x37B JUMP JUMPDEST SWAP1 POP SWAP2 SWAP1 POP JUMP JUMPDEST PUSH2 0x3A8 DUP2 PUSH2 0x38D JUMP JUMPDEST DUP3 MSTORE POP POP JUMP JUMPDEST PUSH1 0x0 PUSH1 0x20 DUP3 ADD SWAP1 POP PUSH2 0x3C3 PUSH1 0x0 DUP4 ADD DUP5 PUSH2 0x39F JUMP JUMPDEST SWAP3 SWAP2 POP POP JUMP JUMPDEST PUSH1 0x0 DUP2 MLOAD SWAP1 POP SWAP2 SWAP1 POP JUMP JUMPDEST PUSH1 0x0 DUP3 DUP3 MSTORE PUSH1 0x20 DUP3 ADD SWAP1 POP SWAP3 SWAP2 POP POP JUMP JUMPDEST PUSH1 0x0 DUP2 SWAP1 POP PUSH1 0x20 DUP3 ADD SWAP1 POP SWAP2 SWAP1 POP JUMP JUMPDEST PUSH1 0x0 DUP2 MLOAD SWAP1 POP SWAP2 SWAP1 POP JUMP JUMPDEST PUSH1 0x0 DUP3 DUP3 MSTORE PUSH1 0x20 DUP3 ADD SWAP1 POP SWAP3 SWAP2 POP POP JUMP JUMPDEST PUSH1 0x0 JUMPDEST DUP4 DUP2 LT ISZERO PUSH2 0x42F JUMPI DUP1 DUP3 ADD MLOAD DUP2 DUP5 ADD MSTORE PUSH1 0x20 DUP2 ADD SWAP1 POP PUSH2 0x414 JUMP JUMPDEST DUP4 DUP2 GT ISZERO PUSH2 0x43E JUMPI PUSH1 0x0 DUP5 DUP5 ADD MSTORE JUMPDEST POP POP POP POP JUMP JUMPDEST PUSH1 0x0 PUSH1 0x1F NOT PUSH1 0x1F DUP4 ADD AND SWAP1 POP SWAP2 SWAP1 POP JUMP JUMPDEST PUSH1 0x0 PUSH2 0x460 DUP3 PUSH2 0x3F5 JUMP JUMPDEST PUSH2 0x46A DUP2 DUP6 PUSH2 0x400 JUMP JUMPDEST SWAP4 POP PUSH2 0x47A DUP2 DUP6 PUSH1 0x20 DUP7 ADD PUSH2 0x411 JUMP JUMPDEST PUSH2 0x483 DUP2 PUSH2 0x444 JUMP JUMPDEST DUP5 ADD SWAP2 POP POP SWAP3 SWAP2 POP POP JUMP JUMPDEST PUSH1 0x0 PUSH2 0x49A DUP4 DUP4 PUSH2 0x455 JUMP JUMPDEST SWAP1 POP SWAP3 SWAP2 POP POP JUMP JUMPDEST PUSH1 0x0 PUSH1 0x20 DUP3 ADD SWAP1 POP SWAP2 SWAP1 POP JUMP JUMPDEST PUSH1 0x0 PUSH2 0x4BA DUP3 PUSH2 0x3C9 JUMP JUMPDEST PUSH2 0x4C4 DUP2 DUP6 PUSH2 0x3D4 JUMP JUMPDEST SWAP4 POP DUP4 PUSH1 0x20 DUP3 MUL DUP6 ADD PUSH2 0x4D6 DUP6 PUSH2 0x3E5 JUMP JUMPDEST DUP1 PUSH1 0x0 JUMPDEST DUP6 DUP2 LT ISZERO PUSH2 0x512 JUMPI DUP5 DUP5 SUB DUP10 MSTORE DUP2 MLOAD PUSH2 0x4F3 DUP6 DUP3 PUSH2 0x48E JUMP JUMPDEST SWAP5 POP PUSH2 0x4FE DUP4 PUSH2 0x4A2 JUMP JUMPDEST SWAP3 POP PUSH1 0x20 DUP11 ADD SWAP10 POP POP PUSH1 0x1 DUP2 ADD SWAP1 POP PUSH2 0x4DA JUMP JUMPDEST POP DUP3 SWAP8 POP DUP8 SWAP6 POP POP POP POP POP POP SWAP3 SWAP2 POP POP JUMP JUMPDEST PUSH1 0x0 PUSH1 0x20 DUP3 ADD SWAP1 POP DUP2 DUP2 SUB PUSH1 0x0 DUP4 ADD MSTORE PUSH2 0x53E DUP2 DUP5 PUSH2 0x4AF JUMP JUMPDEST SWAP1 POP SWAP3 SWAP2 POP POP JUMP JUMPDEST PUSH1 0x0 PUSH2 0x551 DUP3 PUSH2 0x32F JUMP JUMPDEST SWAP1 POP SWAP2 SWAP1 POP JUMP JUMPDEST PUSH2 0x561 DUP2 PUSH2 0x546 JUMP JUMPDEST DUP3 MSTORE POP POP JUMP JUMPDEST PUSH1 0x0 PUSH1 0x20 DUP3 ADD SWAP1 POP PUSH2 0x57C PUSH1 0x0 DUP4 ADD DUP5 PUSH2 0x558 JUMP JUMPDEST SWAP3 SWAP2 POP POP JUMP JUMPDEST PUSH1 0x0 PUSH1 0x40 MLOAD SWAP1 POP SWAP1 JUMP JUMPDEST PUSH1 0x0 DUP1 REVERT JUMPDEST PUSH1 0x0 DUP1 REVERT JUMPDEST PUSH1 0x0 DUP1 REVERT JUMPDEST PUSH32 0x4E487B7100000000000000000000000000000000000000000000000000000000 PUSH1 0x0 MSTORE PUSH1 0x41 PUSH1 0x4 MSTORE PUSH1 0x24 PUSH1 0x0 REVERT JUMPDEST PUSH2 0x5D3 DUP3 PUSH2 0x444 JUMP JUMPDEST DUP2 ADD DUP2 DUP2 LT PUSH8 0xFFFFFFFFFFFFFFFF DUP3 GT OR ISZERO PUSH2 0x5F2 JUMPI PUSH2 0x5F1 PUSH2 0x59B JUMP JUMPDEST JUMPDEST DUP1 PUSH1 0x40 MSTORE POP POP POP JUMP JUMPDEST PUSH1 0x0 PUSH2 0x605 PUSH2 0x582 JUMP JUMPDEST SWAP1 POP PUSH2 0x611 DUP3 DUP3 PUSH2 0x5CA JUMP JUMPDEST SWAP2 SWAP1 POP JUMP JUMPDEST PUSH1 0x0 PUSH8 0xFFFFFFFFFFFFFFFF DUP3 GT ISZERO PUSH2 0x631 JUMPI PUSH2 0x630 PUSH2 0x59B JUMP JUMPDEST JUMPDEST PUSH1 0x20 DUP3 MUL SWAP1 POP PUSH1 0x20 DUP2 ADD SWAP1 POP SWAP2 SWAP1 POP JUMP JUMPDEST PUSH1 0x0 DUP1 REVERT JUMPDEST PUSH1 0x0 DUP1 REVERT JUMPDEST PUSH2 0x655 DUP2 PUSH2 0x242 JUMP JUMPDEST DUP2 EQ PUSH2 0x660 JUMPI PUSH1 0x0 DUP1 REVERT JUMPDEST POP JUMP JUMPDEST PUSH1 0x0 DUP2 MLOAD SWAP1 POP PUSH2 0x672 DUP2 PUSH2 0x64C JUMP JUMPDEST SWAP3 SWAP2 POP POP JUMP JUMPDEST PUSH1 0x0 PUSH1 0x40 DUP3 DUP5 SUB SLT ISZERO PUSH2 0x68E JUMPI PUSH2 0x68D PUSH2 0x647 JUMP JUMPDEST JUMPDEST PUSH2 0x698 PUSH1 0x40 PUSH2 0x5FB JUMP JUMPDEST SWAP1 POP PUSH1 0x0 PUSH2 0x6A8 DUP5 DUP3 DUP6 ADD PUSH2 0x663 JUMP JUMPDEST PUSH1 0x0 DUP4 ADD MSTORE POP PUSH1 0x20 PUSH2 0x6BC DUP5 DUP3 DUP6 ADD PUSH2 0x663 JUMP JUMPDEST PUSH1 0x20 DUP4 ADD MSTORE POP SWAP3 SWAP2 POP POP JUMP JUMPDEST PUSH1 0x0 PUSH2 0x6DB PUSH2 0x6D6 DUP5 PUSH2 0x616 JUMP JUMPDEST PUSH2 0x5FB JUMP JUMPDEST SWAP1 POP DUP1 DUP4 DUP3 MSTORE PUSH1 0x20 DUP3 ADD SWAP1 POP PUSH1 0x40 DUP5 MUL DUP4 ADD DUP6 DUP2 GT ISZERO PUSH2 0x6FE JUMPI PUSH2 0x6FD PUSH2 0x642 JUMP JUMPDEST JUMPDEST DUP4 JUMPDEST DUP2 DUP2 LT ISZERO PUSH2 0x727 JUMPI DUP1 PUSH2 0x713 DUP9 DUP3 PUSH2 0x678 JUMP JUMPDEST DUP5 MSTORE PUSH1 0x20 DUP5 ADD SWAP4 POP POP PUSH1 0x40 DUP2 ADD SWAP1 POP PUSH2 0x700 JUMP JUMPDEST POP POP POP SWAP4 SWAP3 POP POP POP JUMP JUMPDEST PUSH1 0x0 DUP3 PUSH1 0x1F DUP4 ADD SLT PUSH2 0x746 JUMPI PUSH2 0x745 PUSH2 0x596 JUMP JUMPDEST JUMPDEST DUP2 MLOAD PUSH2 0x756 DUP5 DUP3 PUSH1 0x20 DUP7 ADD PUSH2 0x6C8 JUMP JUMPDEST SWAP2 POP POP SWAP3 SWAP2 POP POP JUMP JUMPDEST PUSH1 0x0 PUSH1 0x20 DUP3 DUP5 SUB SLT ISZERO PUSH2 0x775 JUMPI PUSH2 0x774 PUSH2 0x58C JUMP JUMPDEST JUMPDEST PUSH1 0x0 DUP3 ADD MLOAD PUSH8 0xFFFFFFFFFFFFFFFF DUP2 GT ISZERO PUSH2 0x793 JUMPI PUSH2 0x792 PUSH2 0x591 JUMP JUMPDEST JUMPDEST PUSH2 0x79F DUP5 DUP3 DUP6 ADD PUSH2 0x731 JUMP JUMPDEST SWAP2 POP POP SWAP3 SWAP2 POP POP JUMP JUMPDEST PUSH1 0x0 PUSH8 0xFFFFFFFFFFFFFFFF DUP3 GT ISZERO PUSH2 0x7C3 JUMPI PUSH2 0x7C2 PUSH2 0x59B JUMP JUMPDEST JUMPDEST PUSH1 0x20 DUP3 MUL SWAP1 POP PUSH1 0x20 DUP2 ADD SWAP1 POP SWAP2 SWAP1 POP JUMP JUMPDEST PUSH1 0x0 DUP1 REVERT JUMPDEST PUSH1 0x0 PUSH8 0xFFFFFFFFFFFFFFFF DUP3 GT ISZERO PUSH2 0x7F4 JUMPI PUSH2 0x7F3 PUSH2 0x59B JUMP JUMPDEST JUMPDEST PUSH2 0x7FD DUP3 PUSH2 0x444 JUMP JUMPDEST SWAP1 POP PUSH1 0x20 DUP2 ADD SWAP1 POP SWAP2 SWAP1 POP JUMP JUMPDEST PUSH1 0x0 PUSH2 0x81D PUSH2 0x818 DUP5 PUSH2 0x7D9 JUMP JUMPDEST PUSH2 0x5FB JUMP JUMPDEST SWAP1 POP DUP3 DUP2 MSTORE PUSH1 0x20 DUP2 ADD DUP5 DUP5 DUP5 ADD GT ISZERO PUSH2 0x839 JUMPI PUSH2 0x838 PUSH2 0x7D4 JUMP JUMPDEST JUMPDEST PUSH2 0x844 DUP5 DUP3 DUP6 PUSH2 0x411 JUMP JUMPDEST POP SWAP4 SWAP3 POP POP POP JUMP JUMPDEST PUSH1 0x0 DUP3 PUSH1 0x1F DUP4 ADD SLT PUSH2 0x861 JUMPI PUSH2 0x860 PUSH2 0x596 JUMP JUMPDEST JUMPDEST DUP2 MLOAD PUSH2 0x871 DUP5 DUP3 PUSH1 0x20 DUP7 ADD PUSH2 0x80A JUMP JUMPDEST SWAP2 POP POP SWAP3 SWAP2 POP POP JUMP JUMPDEST PUSH1 0x0 PUSH2 0x88D PUSH2 0x888 DUP5 PUSH2 0x7A8 JUMP JUMPDEST PUSH2 0x5FB JUMP JUMPDEST SWAP1 POP DUP1 DUP4 DUP3 MSTORE PUSH1 0x20 DUP3 ADD SWAP1 POP PUSH1 0x20 DUP5 MUL DUP4 ADD DUP6 DUP2 GT ISZERO PUSH2 0x8B0 JUMPI PUSH2 0x8AF PUSH2 0x642 JUMP JUMPDEST JUMPDEST DUP4 JUMPDEST DUP2 DUP2 LT ISZERO PUSH2 0x8F7 JUMPI DUP1 MLOAD PUSH8 0xFFFFFFFFFFFFFFFF DUP2 GT ISZERO PUSH2 0x8D5 JUMPI PUSH2 0x8D4 PUSH2 0x596 JUMP JUMPDEST JUMPDEST DUP1 DUP7 ADD PUSH2 0x8E2 DUP10 DUP3 PUSH2 0x84C JUMP JUMPDEST DUP6 MSTORE PUSH1 0x20 DUP6 ADD SWAP5 POP POP POP PUSH1 0x20 DUP2 ADD SWAP1 POP PUSH2 0x8B2 JUMP JUMPDEST POP POP POP SWAP4 SWAP3 POP POP POP JUMP JUMPDEST PUSH1 0x0 DUP3 PUSH1 0x1F DUP4 ADD SLT PUSH2 0x916 JUMPI PUSH2 0x915 PUSH2 0x596 JUMP JUMPDEST JUMPDEST DUP2 MLOAD PUSH2 0x926 DUP5 DUP3 PUSH1 0x20 DUP7 ADD PUSH2 0x87A JUMP JUMPDEST SWAP2 POP POP SWAP3 SWAP2 POP POP JUMP JUMPDEST PUSH1 0x0 PUSH1 0x20 DUP3 DUP5 SUB SLT ISZERO PUSH2 0x945 JUMPI PUSH2 0x944 PUSH2 0x58C JUMP JUMPDEST JUMPDEST PUSH1 0x0 DUP3 ADD MLOAD PUSH8 0xFFFFFFFFFFFFFFFF DUP2 GT ISZERO PUSH2 0x963 JUMPI PUSH2 0x962 PUSH2 0x591 JUMP JUMPDEST JUMPDEST PUSH2 0x96F DUP5 DUP3 DUP6 ADD PUSH2 0x901 JUMP JUMPDEST SWAP2 POP POP SWAP3 SWAP2 POP POP JUMP INVALID LOG2 PUSH5 0x6970667358 0x22 SLT KECCAK256 GASLIMIT 0xB6 0xCC CALLER MUL SWAP8 0xD0 0x4A COINBASE JUMPDEST PUSH6 0xA536A5CF19B1 CALLVALUE SMOD SWAP5 0x29 DUP1 0x2C PUSH2 0x61BB 0x21 SHR 0x2E JUMP 0xD8 SWAP14 PUSH5 0x736F6C6343 STOP ADDMOD SIGNEXTEND STOP CALLER "
		},
		"gasEstimates": {
			"creation": {
				"codeDepositCost": "495600",
				"executionCost": "infinite",
				"totalCost": "infinite"
			},
			"external": {
				"_getMyCourses()": "infinite",
				"getAllMarks()": "infinite",
				"universityContract()": "infinite"
			}
		},
		"methodIdentifiers": {
			"_getMyCourses()": "c99d599f",
			"getAllMarks()": "4d632c66",
			"universityContract()": "a4aa1e70"
		}
	},
	"abi": [
		{
			"inputs": [
				{
					"internalType": "address",
					"name": "_universityContractAddress",
					"type": "address"
				}
			],
			"stateMutability": "nonpayable",
			"type": "constructor"
		},
		{
			"inputs": [],
			"name": "_getMyCourses",
			"outputs": [
				{
					"internalType": "string[]",
					"name": "",
					"type": "string[]"
				}
			],
			"stateMutability": "view",
			"type": "function"
		},
		{
			"inputs": [],
			"name": "getAllMarks",
			"outputs": [
				{
					"components": [
						{
							"internalType": "uint256",
							"name": "courseCode",
							"type": "uint256"
						},
						{
							"internalType": "uint256",
							"name": "givenMark",
							"type": "uint256"
						}
					],
					"internalType": "struct UniversityContract.Mark[]",
					"name": "",
					"type": "tuple[]"
				}
			],
			"stateMutability": "view",
			"type": "function"
		},
		{
			"inputs": [],
			"name": "universityContract",
			"outputs": [
				{
					"internalType": "contract UniversityContract",
					"name": "",
					"type": "address"
				}
			],
			"stateMutability": "view",
			"type": "function"
		}
	]
}