{
	"data": {
		"bytecode": {
			"linkReferences": {},
			"object": "608060405234801561001057600080fd5b50604051610471380380610471833981810160405281019061003291906100db565b806000806101000a81548173ffffffffffffffffffffffffffffffffffffffff021916908373ffffffffffffffffffffffffffffffffffffffff16021790555050610108565b600080fd5b600073ffffffffffffffffffffffffffffffffffffffff82169050919050565b60006100a88261007d565b9050919050565b6100b88161009d565b81146100c357600080fd5b50565b6000815190506100d5816100af565b92915050565b6000602082840312156100f1576100f0610078565b5b60006100ff848285016100c6565b91505092915050565b61035a806101176000396000f3fe608060405234801561001057600080fd5b50600436106100365760003560e01c806380b3a0bc1461003b578063a4aa1e701461006b575b600080fd5b61005560048036038101906100509190610194565b610089565b60405161006291906101f6565b60405180910390f35b610073610135565b6040516100809190610290565b60405180910390f35b60008060009054906101000a900473ffffffffffffffffffffffffffffffffffffffff1673ffffffffffffffffffffffffffffffffffffffff166380b3a0bc8585856040518463ffffffff1660e01b81526004016100e9939291906102ab565b6020604051808303816000875af1158015610108573d6000803e3d6000fd5b505050506040513d601f19601f8201168201806040525081019061012c91906102f7565b90509392505050565b60008054906101000a900473ffffffffffffffffffffffffffffffffffffffff1681565b600080fd5b6000819050919050565b6101718161015e565b811461017c57600080fd5b50565b60008135905061018e81610168565b92915050565b6000806000606084860312156101ad576101ac610159565b5b60006101bb8682870161017f565b93505060206101cc8682870161017f565b92505060406101dd8682870161017f565b9150509250925092565b6101f08161015e565b82525050565b600060208201905061020b60008301846101e7565b92915050565b600073ffffffffffffffffffffffffffffffffffffffff82169050919050565b6000819050919050565b600061025661025161024c84610211565b610231565b610211565b9050919050565b60006102688261023b565b9050919050565b600061027a8261025d565b9050919050565b61028a8161026f565b82525050565b60006020820190506102a56000830184610281565b92915050565b60006060820190506102c060008301866101e7565b6102cd60208301856101e7565b6102da60408301846101e7565b949350505050565b6000815190506102f181610168565b92915050565b60006020828403121561030d5761030c610159565b5b600061031b848285016102e2565b9150509291505056fea264697066735822122086b2f3504cc1db375463a1753be589de29376b55f01000e172a7351ce25ee38564736f6c634300080b0033",
			"opcodes": "PUSH1 0x80 PUSH1 0x40 MSTORE CALLVALUE DUP1 ISZERO PUSH2 0x10 JUMPI PUSH1 0x0 DUP1 REVERT JUMPDEST POP PUSH1 0x40 MLOAD PUSH2 0x471 CODESIZE SUB DUP1 PUSH2 0x471 DUP4 CODECOPY DUP2 DUP2 ADD PUSH1 0x40 MSTORE DUP2 ADD SWAP1 PUSH2 0x32 SWAP2 SWAP1 PUSH2 0xDB JUMP JUMPDEST DUP1 PUSH1 0x0 DUP1 PUSH2 0x100 EXP DUP2 SLOAD DUP2 PUSH20 0xFFFFFFFFFFFFFFFFFFFFFFFFFFFFFFFFFFFFFFFF MUL NOT AND SWAP1 DUP4 PUSH20 0xFFFFFFFFFFFFFFFFFFFFFFFFFFFFFFFFFFFFFFFF AND MUL OR SWAP1 SSTORE POP POP PUSH2 0x108 JUMP JUMPDEST PUSH1 0x0 DUP1 REVERT JUMPDEST PUSH1 0x0 PUSH20 0xFFFFFFFFFFFFFFFFFFFFFFFFFFFFFFFFFFFFFFFF DUP3 AND SWAP1 POP SWAP2 SWAP1 POP JUMP JUMPDEST PUSH1 0x0 PUSH2 0xA8 DUP3 PUSH2 0x7D JUMP JUMPDEST SWAP1 POP SWAP2 SWAP1 POP JUMP JUMPDEST PUSH2 0xB8 DUP2 PUSH2 0x9D JUMP JUMPDEST DUP2 EQ PUSH2 0xC3 JUMPI PUSH1 0x0 DUP1 REVERT JUMPDEST POP JUMP JUMPDEST PUSH1 0x0 DUP2 MLOAD SWAP1 POP PUSH2 0xD5 DUP2 PUSH2 0xAF JUMP JUMPDEST SWAP3 SWAP2 POP POP JUMP JUMPDEST PUSH1 0x0 PUSH1 0x20 DUP3 DUP5 SUB SLT ISZERO PUSH2 0xF1 JUMPI PUSH2 0xF0 PUSH2 0x78 JUMP JUMPDEST JUMPDEST PUSH1 0x0 PUSH2 0xFF DUP5 DUP3 DUP6 ADD PUSH2 0xC6 JUMP JUMPDEST SWAP2 POP POP SWAP3 SWAP2 POP POP JUMP JUMPDEST PUSH2 0x35A DUP1 PUSH2 0x117 PUSH1 0x0 CODECOPY PUSH1 0x0 RETURN INVALID PUSH1 0x80 PUSH1 0x40 MSTORE CALLVALUE DUP1 ISZERO PUSH2 0x10 JUMPI PUSH1 0x0 DUP1 REVERT JUMPDEST POP PUSH1 0x4 CALLDATASIZE LT PUSH2 0x36 JUMPI PUSH1 0x0 CALLDATALOAD PUSH1 0xE0 SHR DUP1 PUSH4 0x80B3A0BC EQ PUSH2 0x3B JUMPI DUP1 PUSH4 0xA4AA1E70 EQ PUSH2 0x6B JUMPI JUMPDEST PUSH1 0x0 DUP1 REVERT JUMPDEST PUSH2 0x55 PUSH1 0x4 DUP1 CALLDATASIZE SUB DUP2 ADD SWAP1 PUSH2 0x50 SWAP2 SWAP1 PUSH2 0x194 JUMP JUMPDEST PUSH2 0x89 JUMP JUMPDEST PUSH1 0x40 MLOAD PUSH2 0x62 SWAP2 SWAP1 PUSH2 0x1F6 JUMP JUMPDEST PUSH1 0x40 MLOAD DUP1 SWAP2 SUB SWAP1 RETURN JUMPDEST PUSH2 0x73 PUSH2 0x135 JUMP JUMPDEST PUSH1 0x40 MLOAD PUSH2 0x80 SWAP2 SWAP1 PUSH2 0x290 JUMP JUMPDEST PUSH1 0x40 MLOAD DUP1 SWAP2 SUB SWAP1 RETURN JUMPDEST PUSH1 0x0 DUP1 PUSH1 0x0 SWAP1 SLOAD SWAP1 PUSH2 0x100 EXP SWAP1 DIV PUSH20 0xFFFFFFFFFFFFFFFFFFFFFFFFFFFFFFFFFFFFFFFF AND PUSH20 0xFFFFFFFFFFFFFFFFFFFFFFFFFFFFFFFFFFFFFFFF AND PUSH4 0x80B3A0BC DUP6 DUP6 DUP6 PUSH1 0x40 MLOAD DUP5 PUSH4 0xFFFFFFFF AND PUSH1 0xE0 SHL DUP2 MSTORE PUSH1 0x4 ADD PUSH2 0xE9 SWAP4 SWAP3 SWAP2 SWAP1 PUSH2 0x2AB JUMP JUMPDEST PUSH1 0x20 PUSH1 0x40 MLOAD DUP1 DUP4 SUB DUP2 PUSH1 0x0 DUP8 GAS CALL ISZERO DUP1 ISZERO PUSH2 0x108 JUMPI RETURNDATASIZE PUSH1 0x0 DUP1 RETURNDATACOPY RETURNDATASIZE PUSH1 0x0 REVERT JUMPDEST POP POP POP POP PUSH1 0x40 MLOAD RETURNDATASIZE PUSH1 0x1F NOT PUSH1 0x1F DUP3 ADD AND DUP3 ADD DUP1 PUSH1 0x40 MSTORE POP DUP2 ADD SWAP1 PUSH2 0x12C SWAP2 SWAP1 PUSH2 0x2F7 JUMP JUMPDEST SWAP1 POP SWAP4 SWAP3 POP POP POP JUMP JUMPDEST PUSH1 0x0 DUP1 SLOAD SWAP1 PUSH2 0x100 EXP SWAP1 DIV PUSH20 0xFFFFFFFFFFFFFFFFFFFFFFFFFFFFFFFFFFFFFFFF AND DUP2 JUMP JUMPDEST PUSH1 0x0 DUP1 REVERT JUMPDEST PUSH1 0x0 DUP2 SWAP1 POP SWAP2 SWAP1 POP JUMP JUMPDEST PUSH2 0x171 DUP2 PUSH2 0x15E JUMP JUMPDEST DUP2 EQ PUSH2 0x17C JUMPI PUSH1 0x0 DUP1 REVERT JUMPDEST POP JUMP JUMPDEST PUSH1 0x0 DUP2 CALLDATALOAD SWAP1 POP PUSH2 0x18E DUP2 PUSH2 0x168 JUMP JUMPDEST SWAP3 SWAP2 POP POP JUMP JUMPDEST PUSH1 0x0 DUP1 PUSH1 0x0 PUSH1 0x60 DUP5 DUP7 SUB SLT ISZERO PUSH2 0x1AD JUMPI PUSH2 0x1AC PUSH2 0x159 JUMP JUMPDEST JUMPDEST PUSH1 0x0 PUSH2 0x1BB DUP7 DUP3 DUP8 ADD PUSH2 0x17F JUMP JUMPDEST SWAP4 POP POP PUSH1 0x20 PUSH2 0x1CC DUP7 DUP3 DUP8 ADD PUSH2 0x17F JUMP JUMPDEST SWAP3 POP POP PUSH1 0x40 PUSH2 0x1DD DUP7 DUP3 DUP8 ADD PUSH2 0x17F JUMP JUMPDEST SWAP2 POP POP SWAP3 POP SWAP3 POP SWAP3 JUMP JUMPDEST PUSH2 0x1F0 DUP2 PUSH2 0x15E JUMP JUMPDEST DUP3 MSTORE POP POP JUMP JUMPDEST PUSH1 0x0 PUSH1 0x20 DUP3 ADD SWAP1 POP PUSH2 0x20B PUSH1 0x0 DUP4 ADD DUP5 PUSH2 0x1E7 JUMP JUMPDEST SWAP3 SWAP2 POP POP JUMP JUMPDEST PUSH1 0x0 PUSH20 0xFFFFFFFFFFFFFFFFFFFFFFFFFFFFFFFFFFFFFFFF DUP3 AND SWAP1 POP SWAP2 SWAP1 POP JUMP JUMPDEST PUSH1 0x0 DUP2 SWAP1 POP SWAP2 SWAP1 POP JUMP JUMPDEST PUSH1 0x0 PUSH2 0x256 PUSH2 0x251 PUSH2 0x24C DUP5 PUSH2 0x211 JUMP JUMPDEST PUSH2 0x231 JUMP JUMPDEST PUSH2 0x211 JUMP JUMPDEST SWAP1 POP SWAP2 SWAP1 POP JUMP JUMPDEST PUSH1 0x0 PUSH2 0x268 DUP3 PUSH2 0x23B JUMP JUMPDEST SWAP1 POP SWAP2 SWAP1 POP JUMP JUMPDEST PUSH1 0x0 PUSH2 0x27A DUP3 PUSH2 0x25D JUMP JUMPDEST SWAP1 POP SWAP2 SWAP1 POP JUMP JUMPDEST PUSH2 0x28A DUP2 PUSH2 0x26F JUMP JUMPDEST DUP3 MSTORE POP POP JUMP JUMPDEST PUSH1 0x0 PUSH1 0x20 DUP3 ADD SWAP1 POP PUSH2 0x2A5 PUSH1 0x0 DUP4 ADD DUP5 PUSH2 0x281 JUMP JUMPDEST SWAP3 SWAP2 POP POP JUMP JUMPDEST PUSH1 0x0 PUSH1 0x60 DUP3 ADD SWAP1 POP PUSH2 0x2C0 PUSH1 0x0 DUP4 ADD DUP7 PUSH2 0x1E7 JUMP JUMPDEST PUSH2 0x2CD PUSH1 0x20 DUP4 ADD DUP6 PUSH2 0x1E7 JUMP JUMPDEST PUSH2 0x2DA PUSH1 0x40 DUP4 ADD DUP5 PUSH2 0x1E7 JUMP JUMPDEST SWAP5 SWAP4 POP POP POP POP JUMP JUMPDEST PUSH1 0x0 DUP2 MLOAD SWAP1 POP PUSH2 0x2F1 DUP2 PUSH2 0x168 JUMP JUMPDEST SWAP3 SWAP2 POP POP JUMP JUMPDEST PUSH1 0x0 PUSH1 0x20 DUP3 DUP5 SUB SLT ISZERO PUSH2 0x30D JUMPI PUSH2 0x30C PUSH2 0x159 JUMP JUMPDEST JUMPDEST PUSH1 0x0 PUSH2 0x31B DUP5 DUP3 DUP6 ADD PUSH2 0x2E2 JUMP JUMPDEST SWAP2 POP POP SWAP3 SWAP2 POP POP JUMP INVALID LOG2 PUSH5 0x6970667358 0x22 SLT KECCAK256 DUP7 0xB2 RETURN POP 0x4C 0xC1 0xDB CALLDATACOPY SLOAD PUSH4 0xA1753BE5 DUP10 0xDE 0x29 CALLDATACOPY PUSH12 0x55F01000E172A7351CE25EE3 DUP6 PUSH5 0x736F6C6343 STOP ADDMOD SIGNEXTEND STOP CALLER "
		},
		"gasEstimates": {
			"creation": {
				"codeDepositCost": "171600",
				"executionCost": "infinite",
				"totalCost": "infinite"
			},
			"external": {
				"_giveMark(uint256,uint256,uint256)": "infinite",
				"universityContract()": "infinite"
			}
		},
		"methodIdentifiers": {
			"_giveMark(uint256,uint256,uint256)": "80b3a0bc",
			"universityContract()": "a4aa1e70"
		}
	},
	"abi": [
		{
			"inputs": [
				{
					"internalType": "address",
					"name": "_universityContractAddress",
					"type": "address"
				}
			],
			"stateMutability": "nonpayable",
			"type": "constructor"
		},
		{
			"inputs": [
				{
					"internalType": "uint256",
					"name": "_studentCode",
					"type": "uint256"
				},
				{
					"internalType": "uint256",
					"name": "_courseCode",
					"type": "uint256"
				},
				{
					"internalType": "uint256",
					"name": "_givenMark",
					"type": "uint256"
				}
			],
			"name": "_giveMark",
			"outputs": [
				{
					"internalType": "uint256",
					"name": "",
					"type": "uint256"
				}
			],
			"stateMutability": "nonpayable",
			"type": "function"
		},
		{
			"inputs": [],
			"name": "universityContract",
			"outputs": [
				{
					"internalType": "contract UniversityContract",
					"name": "",
					"type": "address"
				}
			],
			"stateMutability": "view",
			"type": "function"
		}
	]
}